:020000040800F2
:10000000D03B002001020008F7470008A93E000885
:10001000AD470008670900080D4E00080000000009
:100020000000000000000000000000006501000862
:100030002D0A000800000000A901000881480008FE
:100040001B0200081B0200081B0200081B0200081C
:100050001B0200081B0200081B0200081B0200080C
:100060001B0200081B0200081B0200081B020008FC
:100070001B0200081B0200081B0200081B020008EC
:100080001B0200081B0200081B0200081B020008DC
:100090006D0900087D0900081B0200081B0200080A
:1000A0001B020008514900081B0200081B0200083F
:1000B0001B0200081B0200081B0200081B020008AC
:1000C0001B0200081B0200081B0200081B0200089C
:1000D0001B020008FD4D00081B0200081B0200085F
:1000E0001B0200081B0200081B02000800000000A1
:1000F0000000000000000000000000000000000000
:1001000000000000000000001B0200081B020008A5
:10011000E54900081B0200081B0200081B0200083A
:100120001B0200081B0200081B0200081B0200083B
:10013000F109000800000000000000001B02000898
:100140008D0900089D0900081B0200081B02000819
:10015000DFF80CD000F08AFB00480047D9670008A0
:10016000D03B0020224B19680868B0E8F00F80F3FC
:100170000988BFF36F8F4FF0000080F311884EF0B5
:100180000D0E70470000000006480068006880F30C
:10019000088862B661B6BFF34F8FBFF36F8F00DF81
:1001A00000BF00BF08ED00E0EFF30980BFF36F8FE1
:1001B0000F4B1A6820E9F00F106008B54FF050009F
:1001C00080F31188BFF34F8FBFF36F8F08F0FAFDF4
:1001D0004FF0000080F31188BDE8084019680868F6
:1001E000B0E8F00F80F30988BFF36F8F704700BF4E
:1001F0002C010020EFF305807047000040BA7047E3
:100200000648804706480047FEE7FEE7FEE7FEE7B0
:10021000FEE7FEE7FEE7FEE7FEE7FEE74D490008E2
:100220005101000830B50B46014600202022012470
:1002300009E021FA02F59D4205D303FA02F5491BB4
:1002400004FA02F52844151EA2F10102F1DC30BDCA
:100250002DE9F05F0546002092469B4688460646FB
:10026000814640241BE0284641464746224600F08E
:1002700020F853465A46C01A914110D311461846E9
:10028000224600F0CEF82D1A67EB01084F462246B1
:100290000120002100F0C5F817EB00094E41201E97
:1002A000A4F10104DFDC484631462A464346BDE856
:1002B000F09F202A04DB203A21FA02F00021704747
:1002C00021FA02F3D040C2F12002914008431946BE
:1002D00070472DE9FE43994615468846074601AC0E
:1002E000022942D3002D40D000200290A8F1010045
:1002F0004FF0FF36009022E000FB057201FB057015
:1003000011464A469047002805DC54F82600304440
:1003100044F8260013E060682A4600FB057154F893
:10032000040C00FB057007E00B7890F800C001F8A2
:1003300001CB00F8013B521E002AF5D1764254F859
:10034000040C61688842D7DC4B462A463846FFF7E2
:10035000C0FF54F8040C4B46A8EB0001401C00FB06
:1003600005702A46491EFFF7B4FFBDE8FE8310B5AD
:10037000431A934209D28318881803E010F8011D2C
:1003800003F8011D521EF9D210BD40EA01039B077C
:1003900003D009E008C9121F08C0042AFAD203E0FA
:1003A00011F8013B00F8013B521EF9D210BDD2B248
:1003B00001E000F8012B491EFBD270470022F6E74E
:1003C00010B513460A4604461946FFF7F0FF2046CB
:1003D00010BDCAB2401E10F8011F8A4202D0002987
:1003E000F9D100207047421C10F8011B0029FBD1F5
:1003F000801A704710B5002200E0521C835C8C5CB0
:10040000A34201D1002BF8D1D8B2E1B2401A10BDFD
:10041000034611F8012B00F8012B002AF9D11846E8
:100420007047202A04DB203A00FA02F100207047CE
:100430009140C2F1200320FA03F319439040704722
:1004400010B5141E73F1000408DA401C41F10001DC
:1004500092185B411A4301D120F0010010BD2DE933
:10046000F04D92469B4611B1B1FA81F202E0B0FA2A
:1004700080F220329046FFF7D4FF04460F4640EA50
:100480000A0041EA0B0153465A46084313D011466D
:1004900053EA010019D0C8F140025046FFF709FFA6
:1004A00005460E46504659464246FFF7BAFF0843F6
:1004B00005D0012004E020463946BDE8F08D00203B
:1004C000054346EAE0762C4337430A986305E40A7D
:1004D000A0EB08000022FD0A44EA47540A3002D586
:1004E00000200146E9E7010510196941DDE90845E9
:1004F00000196941BDE8F04DA2E72DE9FE4F8046A5
:1005000081EA0300C00F0C46009021F0004123F067
:100510000045B8EB0200A94105D24046214690466D
:100520001C460B46024623F00040104347D0270DDF
:10053000C7F30A00C3F30A510290401A0190402801
:100540006BDAC3F3130040F4801B0098924620B18D
:100550000023D2EB030A63EB0B0B01985946C0F161
:1005600040025046FFF75DFF06460D46504659468D
:10057000019A00F08DF910EB08006141002487EA30
:10058000115284EAE7731A4340D0009A62B3019A89
:10059000012A4FEA075215DC001B61EB02014FF004
:1005A000004202EA0752CDE90042001C41F58011E9
:1005B00032462B46FFF753FF03B0BDE8F08F4046AD
:1005C0002146F9E7001B61EB0201001C41F5801395
:1005D00000185B412018A2F5001747EB030140EA21
:1005E000D570B6196D4111E06D084FEA360645EA3F
:1005F000C0754FEA0752001B61EB0201001C41F578
:10060000801149084FEA30000019514132462B460B
:1006100003B0BDE8F04FFFF713BF00980122400080
:100620000023D0EB020263EBE073009821464FEA0F
:10063000E074B8EB000061EB0401E9E783F00043EC
:100640005BE781F0004158E72DE9FE4F81EA0304A2
:1006500004F0004421F0004100944FF0000B23F01F
:10066000004350EA01045ED052EA03045BD0C3F3B6
:100670000A54C1F30A552C44A4F2F3340194A0FBAC
:100680000254C1F3130141F48011C3F3130343F483
:10069000801301FB024400FB034E840A970A44EADC
:1006A000815447EA8357A4FB076802958D0A05FB2E
:1006B00007854FEA932C04FB0C542705029D4FEA53
:1006C000065847EA1637B5EB08056EEB070C870EA0
:1006D000920E47EA811742EA8312A7FB0201B6EBAA
:1006E0000B0164EB00042B0D43EA0C335E1844EB62
:1006F0001C50DA465146E7FB0201C5F313044FEAEA
:100700000B3343EA14534FEA0432019C43EA0603D5
:10071000A4F10C040294009CCDE900B4FFF79FFE05
:1007200003B0BDE8F08F00200146F9E72DE9F04D58
:1007300081EA030404F0004B21F0004514464FF019
:10074000000A23F0004150EA050220D054EA0102D9
:100750001DD0C5F30A570246C5F31303C1F31300B6
:10076000C1F30A5640F4801543F48013A7EB060842
:10077000101BD64608F2FD3873EB050002D308F1D2
:10078000010801E092185B41B8F1000F03DA002084
:100790000146BDE8F08D00204FF4801106468446E6
:1007A0000EE0171B73EB050705D3121B63EB050364
:1007B00006434CEA010C49084FEA300092185B41AD
:1007C00050EA0107EDD152EA030012D082EA040098
:1007D00083EA0501084305D0101BAB4106D2012274
:1007E000002306E000224FF0004302E06FF0010218
:1007F00053101AEB06004CEB085110EB0A0041EBCA
:100800000B01BDE8F04DFFF71BBEC1F30A52C1F367
:10081000130140F2FF3341F480119A4202DA0020C2
:100820000146704740F233439A42A2F2334202DC5F
:100830005242FFF73EBDFFF7F4BD000030B5041E85
:1008400071F1000404DB4FF00044404264EB01010D
:10085000141E73F1000405DB1C464FF000435242A6
:1008600063EB0403994208BF904230BD064C074D2C
:1008700006E0E06840F0010394E807009847103470
:10088000AC42F6D3FFF768FC88960008A8960008EB
:10089000202A06DBCB17203A41FA02F043EAE07344
:1008A00006E041FA02F3D040C2F120029140084331
:1008B0001946704770B58C1810F8015B15F00703E6
:1008C00001D110F8013B2A1106D110F8012B03E0E9
:1008D00010F8016B01F8016B5B1EF9D12B0705D4F1
:1008E0000023521E0DD401F8013BFAE710F8013B3A
:1008F000CB1A921C03E013F8015B01F8015B521E56
:10090000F9D5A142D8D3002070BD70B504460025AA
:100910002068806800F0010018B32068806820F02B
:1009200001002168886001F089FB054613E001F0B1
:1009300085FB401B02280ED92068806800F001006A
:1009400048B1A06A40F01000A062E06A40F00100E7
:10095000E062012070BD2068806800F0010000287E
:10096000E5D10020F6E700BFFEE7000010B5024821
:1009700000F060FB10BD00004C08002010B50248DC
:1009800000F058FB10BD00004C08002010B50248D4
:1009900000F050FB10BD00007408002010B50248A4
:1009A00000F048FB10BD00007408002000B58BB0BB
:1009B0000020069001200990002007900120089057
:1009C00000200190029003900490059001A9064830
:1009D00000F0E0F90E2006900A9001A9034800F00B
:1009E000D9F90BB000BD00004C08002074080020AD
:1009F00010B5024800F01AFF10BD0000500A002098
:100A000030B590F840500124AC40C56B6C60046870
:100A100063604468102C04D10468A2600468E1603B
:100A200003E00468A1600468E26030BD7047000024
:100A300072B600222021054801F0FAFA00220221B4
:100A4000034801F0F5FA00BFFEE700000010014086
:100A5000000C014038B5024600230020009000BF82
:100A600092F82400012801D1022038BD012082F82B
:100A7000240000BF4868072812D21068406B0C7928
:100A8000641E04EB84051F24AC40A0430D796D1E49
:100A900005EB85050C68AC4020431468606327E0D3
:100AA00048680D2812D21068006B0C79E41F04EB23
:100AB00084051F24AC40A0430D79ED1F05EB85058F
:100AC0000C68AC4020431468206311E01068C06AD1
:100AD0000C790D3C04EB84051F24AC40A0430D7938
:100AE0000D3D05EB85050C68AC4020431468E062C1
:100AF00008680A2812D31068C0680C780A3C04EB16
:100B000044050724AC40A0430D780A3D05EB45059C
:100B10008C68AC4020431468E0600FE01068006906
:100B20000C7804EB44050724AC40A0430D7805EB9A
:100B300045058C68AC402043146820610868102883
:100B400002D00868112827D1174C1068A0421ED186
:100B50001068806800F40000F0B91068806840F404
:100B600000001468A0600868102815D10F480068BC
:100B70000F4CB0FBF4F000EB80004000009002E06E
:100B80000098401E009000980028F9D104E0906A77
:100B900040F020009062012300BF002082F8240072
:100BA00000BF184661E70000002401402801002032
:100BB00040420F002DE9F0410446002700250026A1
:100BC000A84614B90120BDE8F081A06810B1207DCD
:100BD00000B100BFA06A30B90020E06284F82400B0
:100BE000204600F089F82046FFF78FFE0746A06AEE
:100BF00000F01000002873D1002F71D1A06A20F4FA
:100C0000885040F00200A062E16960680843217BDF
:100C100040EA41000643A068B0F5807F02D0A0689A
:100C2000012802D14FF4807000E000200543207DB0
:100C3000012811D1207B38B9A069401E4FF4006112
:100C400041EA4030054307E0A06A40F02000A0627E
:100C5000E06A40F00100E0622068406820F46940EA
:100C60002843216848602068806821490840304353
:100C700021688860A068B0F5807F02D0A068012854
:100C800002D14FF4807000E00020B0F5807F03D1E6
:100C9000208A401E4FEA00582068C06A20F4700085
:100CA00040EA08002168C86220688068114908404D
:100CB000B04208D10020E062A06A20F0020040F0BB
:100CC0000100A06211E0A06A20F0020040F01000D4
:100CD000A062E06A40F00100E062012705E0FFE762
:100CE000A06A40F01000A062012738466BE70000C0
:100CF000FDF7E1FFFE0E1FFF10B586B00446002091
:100D0000029003900490059014492068884222D1F3
:100D100000BF1348806940F400701149886108469B
:100D2000806900F40070019000BF00BF00BF08465A
:100D3000806940F0100088610846806900F010006A
:100D4000019000BF00BF012002900320039002A980
:100D5000044800F0CBFF06B010BD000000240140A5
:100D6000001002400010014010B5024692F82030F9
:100D7000012B01D0022B06D110684069084314688A
:100D80006061002010BD506A40F480205062012054
:100D9000F8E70000F0B504460A46216894F82050B0
:100DA000012D01D0022D7ED1424901F50071086864
:100DB00040F001000860086820F47C500860086872
:100DC000566A40EA06200860107D00F01F060120E8
:100DD00000FA06F3C8699843C861A1F50071D069AB
:100DE000C8B9D1F80C029843C1F80C02908880B2BF
:100DF000968940EA064601F51070576940F8376059
:100E0000108880B2168940EA064601F510705769CD
:100E100000EBC7004660D069012819D1D1F80C0257
:100E20001843C1F80C02908880B2168840EA064642
:100E300001F51070576940F83760908980B21689C3
:100E400040EA064601F51070576900EBC70046609E
:100E5000906928B9D1F804029843C1F8040204E06B
:100E6000D1F804021843C1F80402106928B9D1F876
:100E700014029843C1F8140204E0D1F81402184394
:100E8000C1F81402106A012804D1D1F81C021843D9
:100E9000C1F81C02D1F8000220F00100C1F80002E4
:100EA0000020F0BDFFE7606A40F48020606201200E
:100EB000F7E7000000640040704770B5044694F8FE
:100EC0002050012D01D0022D7DD151B92068C0687C
:100ED00000F0030080B9606A40F4001060620120F5
:100EE00070BD2068006900F0030028B9606A40F412
:100EF000001060620120F3E7206800F5D87000EB75
:100F00000110006800F004009060906840B920680B
:100F100000F5D87000EB01100068400D106007E08C
:100F2000206800F5D87000EB01100068C008506020
:100F3000206800F5D87000EB0110006800F0020096
:100F4000D060206800F5D87000EB0110406800F018
:100F50000F001061206800F5D87000EB01104068A8
:100F600000F47F40000A9061206800F5D87000EB23
:100F700001104068000C5061206800F5D87000EB4B
:100F8000011080681870206800F5D87000EB01101F
:100F9000806800F47F40000A5870206800F5D8701F
:100FA00000EB0110806800F47F00000C987020684E
:100FB00000F5D87000EB01108068000ED870206832
:100FC00000F5D87000E02FE000EB0110C068187148
:100FD000206800F5D87000EB0110C06800F47F4075
:100FE000000A5871206800F5D87000EB0110C06845
:100FF00000F47F00000C9871206800F5D87000EBB9
:101000000110C068000ED87131B92068C06840F086
:1010100020002668F06005E02068006940F02000AC
:101020002668306100205BE7606A40F480206062DF
:10103000012055E72DE9F05F044600252068466948
:101040002068D0F80490206887682068D0F80CA049
:101050002068D0F810B02068D0F8188006F00100A1
:10106000002855D007F00100C0B101202168886038
:1010700007F0020018B1204600F0D3FA0EE007F0A6
:10108000040010B145F4006508E007F0080010B155
:1010900045F4805502E0204600F0C2FA07F4807063
:1010A000C8B14FF480702168886007F4007018B1EF
:1010B000204600F0B8FA0EE007F4806010B145F465
:1010C000005508E007F4006010B145F4804502E0E7
:1010D000204600F0A7FA07F48030C8B14FF4803002
:1010E0002168886007F4003018B1204600F09DFAAE
:1010F0000EE007F4802010B145F4004508E007F445
:10110000002010B145F4803502E0204600F08CFA52
:1011100006F0080038B10AF0100020B145F400755F
:1011200010202168C86006F0040040B10AF00800F1
:1011300028B108202168C860204600F027FA06F090
:10114000020038B12068C06800F0030010B12046EA
:1011500000F01EFA06F0400038B10BF0100020B18C
:1011600045F4806510202168086106F0200040B138
:101170000BF0080028B1082021680861204600F023
:101180001DFA06F0100038B12068006900F0030075
:1011900010B1204600F013FA06F4003040B109F017
:1011A000100028B1102021684860204600F008FA9D
:1011B00006F4803040B109F0080028B10820216809
:1011C0004860204600F032FA06F4004088B309F087
:1011D000040078B306F4807020B108F0010008B173
:1011E00045F0010506F4007020B108F0020008B1D6
:1011F00045F0020506F4806020B108F0040008B153
:1012000045F0040506F40060A0B108F0700088B154
:1012100008F07000402817D006DC10280BD02028DA
:101220000CD0302819D10CE0502810D0602814D1EF
:1012300010E01DE019E045F008050FE045F010054D
:101240000CE045F0200509E045F0400506E045F0DA
:10125000800503E045F4807500E000BF00BF206812
:10126000806920F07000216888610420216848604E
:101270002DB1606A284360622046FFF71DFEBDE87D
:10128000F09F70B504460CB9012070BD94F82000A1
:1012900010B9204600F0B0F82068006840F0010066
:1012A0002168086000F0CAFE05460DE000F0C6FEA9
:1012B000401B0A2808D9606A40F4003060620520AB
:1012C00084F820000120E0E72068406800F0010079
:1012D0000028EBD02068006820F002002168086038
:1012E00000F0ACFE05460DE000F0A8FE401B0A2809
:1012F00008D9606A40F400306062052084F820005C
:101300000120C2E72068406800F002000028EBD10D
:10131000207E012806D12068006840F08000216806
:10132000086005E02068006820F0800021680860FF
:10133000607E012806D12068006840F040002168E6
:10134000086005E02068006820F04000216808601F
:10135000A07E012806D12068006840F020002168A6
:10136000086005E02068006820F02000216808601F
:10137000E07E012806D12068006820F01000216876
:10138000086005E02068006840F0100021680860EF
:10139000207F012806D12068006840F008002168FD
:1013A000086005E02068006820F0080021680860F7
:1013B000607F012806D12068006840F004002168A1
:1013C000086005E02068006820F0040021680860DB
:1013D000D4E902010843216908436169084361684F
:1013E000491E08432168C86100206062012084F81A
:1013F0002000002049E7000010B586B00446002018
:1014000002900390049005905A492068884254D174
:1014100059480068401C584908600846006801287F
:101420000DD100BF5548C06940F000705349C861F4
:101430000846C06900F00070019000BF00BF00BF07
:101440004E48806940F008004C4988610846806930
:1014500000F00800019000BF00BF88150290002036
:101460000390049002A9464800F040FC4FF400703D
:101470000290022003900320059002A9404800F04A
:1014800035FC00BF3F49486820F4C04040F0E060B0
:1014900040F48040486000BF00220521142001F084
:1014A00031FA142001F01EFA00220521152001F066
:1014B00029FA152001F016FA5AE0334920688842CB
:1014C00056D100BF2D48C06940F080602B49C861EB
:1014D0000846C06900F08060019000BF00BF264848
:1014E0000068401C244908600846006801280DD1A6
:1014F00000BF2248C06940F000702049C86108461A
:10150000C06900F00070019000BF00BF00BF1B4821
:10151000806940F00800194988610846806900F038
:101520000800019000BF00BF8814029000200390C3
:10153000049002A9124800F0D9FB4FF40050029029
:10154000022003900320059002A90D4800F0CEFB75
:1015500000220521402001F0D5F9402001F0C2F918
:1015600000220521412001F0CDF9412001F0BAF916
:1015700006B010BD00640040A00000200010024032
:10158000000C01400000014000680040704700006E
:1015900010B50446064B074A00212046FFF78DFC94
:1015A0002021054800F03AFD07F0FCF810BD0000CE
:1015B0005900002048040020001001407047704787
:1015C000704770B5044694F82000012822D102200B
:1015D00084F820002068006820F00100216808607D
:1015E00000F02CFD05460DE000F028FD401B0A2808
:1015F00008D9606A40F400306062052084F8200059
:10160000012070BD2068406800F001000028EBD187
:101610006062F6E7606A40F4002060620120F0E753
:101620007047704770477047704770477047014672
:10163000002291F82100022808D00420886300BF0E
:10164000002081F8200000BF012070470868006872
:1016500020F00E000B6818600868006820F0010098
:101660000B68186091F8403001209840CB6B5860AF
:10167000012081F8210000BF002081F8200000BF78
:101680001046E2E770B50446002594F821000228D0
:1016900003D00420A0630125C1E02068006820F089
:1016A0000E00216808602068006820F001002168B1
:1016B00008605C492068884252D95A4978392068C4
:1016C000884201D1012047E05649643920688842A8
:1016D00001D1102040E0534950392068884201D19F
:1016E000801539E04F493C392068884201D1801487
:1016F00032E04C4928392068884202D14FF48030CA
:101700002AE0484914392068884202D14FF48010F9
:1017100022E044492068884201D140041CE042494B
:101720002068884201D1012016E03F491431206829
:10173000884201D110200FE03B49283120688842BF
:1017400001D1801508E038493C312068884201D138
:10175000801401E04FF480303349091F086051E0E4
:10176000304978392068884201D1012047E02D496D
:1017700064392068884201D1102040E0294950395D
:101780002068884201D1801539E026493C3920681B
:10179000884201D1801432E02249283920688842E9
:1017A00002D14FF480302AE01E4914392068884263
:1017B00002D14FF4801022E01A492068884201D1FA
:1017C00040041CE018492068884201D1012016E03D
:1017D000154914312068884201D110200FE01249C8
:1017E00028312068884201D1801508E00E493C313B
:1017F0002068884201D1801401E04FF4803009490B
:1018000080394860012084F8210000BF002084F85E
:10181000200000BF606B10B12046616B88472846EE
:1018200070BD0000800002400804024070B504460C
:10183000E06B05682068066894F840100420884032
:101840002840002875D006F004000028FAD020684F
:10185000006800F0200028B92068006820F004002B
:1018600021680860D5492068884254D9D34978391D
:101870002068884201D1042049E0D04964392068B9
:10188000884201D1402042E0CC495039206888424A
:1018900001D100153BE0C9493C392068884202D19A
:1018A0004FF4804033E0C54928392068884202D18E
:1018B0004FF480202BE0C14914392068884202D1BE
:1018C0004FF4800023E0BD492068884201D1C00464
:1018D0001DE0BB492068884201D1042017E0B849C7
:1018E00014312068884201D1402010E0B4492831E9
:1018F0002068884201D1001509E0B1493C312068D7
:10190000884202D14FF4804001E04FF48020AC497E
:10191000091F086054E0A94978392068884201D13C
:1019200004204AE0A54964392068884202D1402059
:1019300043E04CE0A14950392068884201D10015AC
:101940003BE09E493C392068884202D14FF48040F8
:1019500033E09A4928392068884202D14FF4802028
:101960002BE0964914392068884202D14FF4800058
:1019700023E092492068884201D1C0041DE09049CB
:101980002068884201D1042017E08D491431206875
:10199000884201D1402010E08949283120688842DE
:1019A00001D1001509E086493C312068884202D106
:1019B0004FF4804001E04FF4802080498039486036
:1019C000E06A002802D02046E16A8847F4E094F8F3
:1019D0004010022088402840002871D006F0020004
:1019E0000028FAD02068006800F0200040B9206884
:1019F000006820F00A0021680860012084F82100B6
:101A00006E492068884254D96C49783920688842E8
:101A100001D1022049E0694964392068884201D136
:101A2000202042E0654950392068884201D14015A4
:101A30003BE062493C392068884202D14FF40050B3
:101A400033E05E4928392068884202D14FF40030E3
:101A50002BE05A4914392068884202D14FF4001013
:101A600023E056492068884201D180041DE0544992
:101A70002068884201D1022017E0514914312068C2
:101A8000884201D1202010E04D4928312068884249
:101A900001D1401509E04A493C312068884202D111
:101AA0004FF4005001E04FF400304549091F086031
:101AB00054E0424978392068884202D102204AE045
:101AC00057E03E4964392068884201D1202042E035
:101AD0003A4950392068884201D140153BE03749E6
:101AE0003C392068884202D14FF4005033E033493A
:101AF00028392068884202D14FF400302BE02F496A
:101B000014392068884202D14FF4001023E02B4999
:101B10002068884201D180041DE02949206888425C
:101B200001D1022017E0264914312068884201D1F2
:101B3000202010E0224928312068884201D1401538
:101B400009E01F493C312068884202D14FF400501F
:101B500001E04FF4003019498039486000BF00208F
:101B600084F8200000BFA06A30B32046A16A8847ED
:101B700022E094F84010082088402840E0B106F0A8
:101B80000800C8B12068006820F00E0021680860D5
:101B900094F8401001208840E16B48600120A06368
:101BA00084F8210000BF002084F8200000BF206BD3
:101BB00010B12046216B884770BD000080000240B4
:101BC000080402400146002209B9012070471E4B5B
:101BD000086898420BD21D4B0868C01A1423B0FB4A
:101BE000F3F08000086419480838C8630AE0164B0F
:101BF0000868C01A1423B0FBF3F080000864124890
:101C00000838C863022081F821000868026843F69A
:101C1000F0708243D1E901031843CB6818430B6984
:101C200018434B6918438B691843CB691843024327
:101C30000868026000208863012081F821000020EC
:101C400081F8200000BFC1E70804024008000240FC
:101C50002DE9F04104460D4616461F464FF0000898
:101C600000BF94F82000012802D10220BDE8F081D5
:101C7000012084F8200000BF94F8210001282CD115
:101C8000022084F821000020A0632068006820F072
:101C90000100216808603B46324629462046FEF78F
:101CA000AFFEE06A30B12068006840F00E002168A5
:101CB00008600BE02068006820F0040021680860DC
:101CC0002068006840F00A00216808602068006809
:101CD00040F001002168086006E000BF002084F8A1
:101CE000200000BF4FF002084046BFE72DE9F8474B
:101CF0000346002294466EE14FF0010808FA02F410
:101D0000D1F8008008EA0400A0427DD1DFF8DCA20F
:101D1000D1F80480A8EB0A09D0453AD014DCB8F118
:101D2000030F50D009DCB8F1000F31D0B8F1010F2A
:101D30001CD0B8F1020F49D120E0B8F1110F18D032
:101D4000B8F1120F42D11EE0B9F5881F25D006DC8C
:101D5000B9F5803F20D0B9F5801F37D11AE0B9F529
:101D6000001F18D0B9F5041F30D117E0D1F80CC00E
:101D70002DE0D1F80C8008F1040C28E0D1F80C809B
:101D800008F1080C23E0D1F80C8008F10C0C1EE0DF
:101D900000BF00BF00BF00BF00BF00BFD1F8088078
:101DA000B8F1000F02D14FF0040C0BE0D1F808801D
:101DB000B8F1010F03D14FF0080C1C6102E04FF0A5
:101DC000080C5C6103E04FF0000C00E000BF00BFB6
:101DD000FF2801D8984601E003F104084646FF2891
:101DE00002D84FEA820803E0A2F108084FEA880807
:101DF0004746D6F800804FF00F0909FA07F928EA9C
:101E000009080CFA07F900E088E048EA0908C6F872
:101E10000080D1F8048008F08058B8F1805F7DD14F
:101E200000BFDFF8CC81D8F8188048F00108DFF84F
:101E3000C091C9F81880C846D8F8188008F0010881
:101E4000CDF8008000BF00BF4FEAB9384FEA9209D1
:101E500058F829504FEA82784FEA18794FF00F0866
:101E600008FA09F825EA0805DFF88881434502D118
:101E70004FF0000816E0DFF88081434502D14FF0B3
:101E800001080FE0DFF87481434502D14FF00208EA
:101E900008E0DFF86C81434502D14FF0030801E010
:101EA0004FF004084FEA82794FEA197908FA09F8E5
:101EB00048EA0505DFF84C814FEA920948F82950B5
:101EC000D1F8048008F48038B8F5803F0AD1DFF8F3
:101ED0003881D8F8008048EA0008DFF82C91C9F86A
:101EE000008009E0DFF82081D8F8008028EA0008A7
:101EF000DFF81491C9F80080D1F8048008F40038A4
:101F0000B8F5003F10D1DFF8008108F10408D8F8D7
:101F1000008048EA0008DFF8F09000E05AE009F19C
:101F20000409C9F800800DE0DFF8DC8008F104083E
:101F3000D8F8008028EA0008DFF8CC9009F10409FD
:101F4000C9F80080D1F8048008F48018B8F5801F23
:101F50000ED1DFF8B48008F10808D8F8008048EA0C
:101F60000008DFF8A49009F10809C9F800800DE025
:101F7000DFF8948008F10808D8F8008028EA000803
:101F8000DFF8849009F10809C9F80080D1F80480CD
:101F900008F40018B8F5001F0ED1DFF86C8008F1C6
:101FA0000C08D8F8008048EA0008DFF85C9009F1D6
:101FB0000C09C9F800800DE0DFF84C8008F10C082E
:101FC000D8F8008028EA0008DFF83C9009F10C09F5
:101FD000C9F80080521CD1F8008028FA02F8B8F144
:101FE000000F7FF489AEBDE8F887000000001110F3
:101FF0000010024000080140000C014000100140A8
:1020000000140140080001400004014002469368AA
:102010000B400BB1012000E00020704710B5C268F2
:1020200021EA020302EA010443EA0443036110BD0A
:102030000AB1016101E00B040361704701480068C7
:10204000704700001C01002070B504460CB9012047
:1020500070BD94F83D0028B9002084F83C0020466B
:1020600000F03EFB242084F83D002068006820F04A
:102070000100216808602068006840F40040216881
:1020800008602068006820F400402168086000F0C3
:10209000A3FE05465C496068884206D85B488542D5
:1020A00001D2012007E0002005E05948854201D215
:1020B000012000E00020012800D1C9E75548B5FB08
:1020C000F0F62068406820F03F0030432168486007
:1020D0004D496068884201D8701C07E04FF4967043
:1020E00070434FF47A71B0FBF1F0401C2168096A2B
:1020F00021F03F0108432168086243496068884233
:1021000014D8681E61684900B0FBF1F0401CC0F3B0
:102110000B00042801D204203DE0681E61684900DC
:10212000B0FBF1F0401CC0F30B0034E0A06838B9FC
:10213000681E616801EB4101B0FBF1F0401C0AE050
:10214000681E616801EBC10202EB0111B0FBF1F006
:10215000401C40F48040C0F30B0008B901201AE095
:10216000A06848B9681E616801EB4101B0FBF1F05D
:10217000401CC0F30B000CE0681E616801EBC1025B
:1021800002EB0111B0FBF1F0401CC0F30B0040F476
:10219000804040F400402168C9694CF6FF729143C9
:1021A00008432168C861D4E9070108432168096828
:1021B00021F0C001084321680860D4E903100843F6
:1021C0002168896848F2FF3291430843216888609A
:1021D000D4E9050108432168C96821F0FF010843DB
:1021E0002168C8602068006840F00100216808602C
:1021F00000202064202084F83D000020206384F823
:102200003E0000BF24E70000A086010080841E007D
:1022100000093D0040420F002DE9FE4F04460F46E5
:1022200090469946DDE90CAB0E9E00200290FFF728
:1022300005FF054694F83D00202872D1192301229C
:10224000CA492046009501F09FFF10B10220BDE869
:10225000FE8F00BF94F83C00012801D10220F6E770
:10226000012084F83C0000BF2068006800F00100F5
:1022700028B92068006840F00100216808602068E3
:10228000006820F4006021680860222084F83D0086
:10229000402084F83E0000202064C4F824A0A4F864
:1022A0002AB0608D2085B248E0624B4642463946EE
:1022B0002046CDE9006501F019FE08B10120C6E70E
:1022C000208D88B900BF00200190206840690190EE
:1022D00020688069019000BF00BF2068006840F45A
:1022E0000070216808604BE0208D01281AD1206819
:1022F000006820F480602168086072B600BF00208A
:10230000019020684069019020688069019000BFB9
:1023100000BF2068006840F400702168086062B661
:102320002EE020E1208D022819D12068006840F4B9
:1023300000602168086072B600BF0020019020682C
:102340004069019020688069019000BF00BF20684B
:10235000006820F480602168086062B610E02068A0
:10236000006840F480602168086000BF0020019090
:1023700020684069019020688069019000BF00BF1B
:10238000E2E0208D03287DD8208D012815D12A4632
:102390003146204601F09DFF08B1012057E7206833
:1023A0000069616A0870606A401C6062208D401E8E
:1023B0002085608D401E6085C6E0208D02282CD1CE
:1023C000334600226B492046009501F0DDFE08B13E
:1023D00001203CE772B62068006840F40070216874
:1023E000086020680069616A0870606A401C606269
:1023F000208D401E2085608D401E608562B620685D
:102400000069616A0870606A401C6062208D401E2D
:102410002085608D401E608596E033460022554938
:102420002046009501F0B0FE08B101200FE72068BA
:10243000006820F480602168086072B62068006936
:10244000616A0870606A401C6062208D401E2085B1
:10245000608D401E6085484800681921B0FBF1F08E
:102460004FF47A71B0FBF1F0C0EBC00000EB8000DC
:10247000029000BF0298401E02900298A8B9002066
:10248000206300E039E0202084F83D00002084F83B
:102490003E00206C40F02000206462B600BF0020A7
:1024A00084F83C0000BF0120D1E620684069C0F3F9
:1024B00080000028DED02068006840F400702168A9
:1024C000086020680069616A0870606A401C606288
:1024D000208D401E2085608D401E608562B620687C
:1024E0000069616A0870606A401C6062208D401E4D
:1024F0002085608D401E608526E02A4631462046B4
:1025000001F0E7FE08B10120A1E620680069616AD8
:102510000870606A401C6062208D401E2085608DBE
:10252000401E608520684069C0F3800060B120686B
:102530000069616A0870606A401C6062208D401EFC
:102540002085608D401E6085208D00287FF419AFA6
:10255000202084F83D00002084F83E0000BF84F86D
:102560003C0000BF73E6022071E60000020010008C
:102570000000FFFF04000100280100202DE9FC5F9E
:1025800004460F4690469946DDE90CAB0E9EFFF7D8
:1025900055FD054694F83D0020287DD119230122E0
:1025A0004D492046009501F0EFFD10B10220BDE835
:1025B000FC9F00BF94F83C00012801D10220F6E7FF
:1025C000012084F83C0000BF2068006800F0010092
:1025D00028B92068006840F0010021680860206880
:1025E000006820F4006021680860212084F83D0024
:1025F000402084F83E0000202064C4F824A0A4F801
:102600002AB0608D20853548E0624B464246394607
:102610002046CDE9006501F019FD08B10120C6E7AB
:1026200031E02A463146204601F093FE50B1206C3D
:10263000042805D12068006840F400702168086013
:102640000120B4E7606A007821680861606A401C74
:102650006062208D401E2085608D401E6085206850
:102660004069C0F3800070B1208D60B1606A00786D
:1026700021680861606A401C6062208D401E2085D0
:10268000608D401E6085208D0028CAD12A463146C3
:10269000204601F04BFD00E01CE050B1206C042806
:1026A00005D12068006840F40070216808600120AE
:1026B0007DE72068006840F40070216808602020F1
:1026C00084F83D00002084F83E0000BF84F83C0000
:1026D00000BF6CE702206AE7020010000000FFFF65
:1026E00010B586B004460020029003900490059037
:1026F00015492068884225D100BF1448806940F000
:102700000800124988610846806900F008000190BD
:1027100000BF00BFC020029012200390032005904C
:1027200002A90B48FFF7E2FA00BF0848C06940F46D
:1027300000100649C8610846C06900F40010019005
:1027400000BF00BF06B010BD0054004000100240A2
:10275000000C014003480068034909780844014916
:10276000086070471C0100202401002010B50848B3
:10277000006840F0100006490860032000F000F9EE
:102780000F2000F007F800F049F8002010BD00000D
:102790000020024070B588B00446002500260022C3
:1027A0002146192000F0AEF8192000F09BF800BF78
:1027B0001648806940F400601449886108468069C1
:1027C00000F40060019000BF00BF02A903A800F060
:1027D000DBFA00F011FB05460D48B5FBF0F0461E94
:1027E0000C480D49086040F2E7310B48C160466073
:1027F00000210161816000F065FE20B9064800F00B
:1028000095FE08B070BD0120FBE7000000100240FB
:1028100040420F00002C0140940A002008B500BF80
:102820001448806940F001001249886108468069B7
:1028300000F00100009000BF00BF00BF0846C06963
:1028400040F08050C8610846C06900F08050009098
:1028500000BF00BF00220F21901E00F053F800BF00
:102860000549486820F0E06040F00070486000BF13
:1028700008BD0000001002400000014010B50146F4
:102880000846002807DB00F01F0301229A40034B93
:10289000440943F8242000BF10BD000080E200E09E
:1028A00010B501460846002817DB00F01F0301227F
:1028B0009A400B4B440943F8242000BF00BF00BFDF
:1028C000BFF34F8F00BF00BF00BF00BF00BF00BFFE
:1028D000BFF36F8F00BF00BF00BF00BF10BD00007F
:1028E00080E100E001460846002809DB00F01F03F4
:1028F00001229A4043099B0003F1E023C3F8002121
:1029000000BF70472DE9F05F80460D461646002750
:1029100002F0C8FA074639462A46334601F0070056
:10292000C0F1070ABAF1040F02D94FF0040A01E01E
:10293000C0F1070AD14600F1040ABAF1070F02D22A
:102940004FF0000A01E0A0F1030AD4464FF0010A5B
:102950000AFA09FAAAF1010A0AEA020A0AFA0CFAC0
:102960004FF0010B0BFA0CFBABF1010B0BEA030B65
:102970004AEA0B042146404602F09CFABDE8F09F6B
:1029800000BF00F00702064B19684FF6FF0319401D
:10299000044B0B4343EA0221014B196000BF70470F
:1029A0000CED00E00000FA05012190FAA0F2B2FA65
:1029B00082F2034B03EB8202C2F8801070470000E2
:1029C00000000E420748006840F002000549086018
:1029D0000548006840F004000349086000BF00BFDC
:1029E00030BF70470070004010ED00E02DE9F84363
:1029F0000446002600250027207800F0010000286A
:102A00006ED0A8467948C06900F0805078B900BF00
:102A10007648C06940F080507449C8610846C06972
:102A200000F08050009000BF00BF4FF001087048D8
:102A3000006800F48070B8B96D48006840F4807098
:102A40006B490860FFF7FAFA064607E0FFF7F6FA67
:102A5000801B642802D90320BDE8F883644800681D
:102A600000F480700028F1D06048006A00F44075DE
:102A70002DB3A08800F44070A84220D05B48006AC3
:102A800020F4407501205B49086000200860574829
:102A9000056205F0010090B1FFF7D0FA064608E0A4
:102AA000FFF7CCFA801B41F28831884201D903201C
:102AB000D2E74E48006A00F002000028F0D04B48F0
:102AC000006A20F440706168084348490862B8F120
:102AD000010F04D10846C06920F08050C86100BFD2
:102AE000207800F00200022807D14048406820F416
:102AF0004040A16808433D494860207800F0040048
:102B0000042807D13948C06A20F40030E16808433E
:102B10003649C862207800F00800082807D13348F9
:102B2000C06A20F48020216908433049C8622F48D8
:102B3000C06A00F4003020B92C48C06A00F480203C
:102B400000B10127012F41D12848006800F08050D2
:102B500090BB2648006800F0806040B12348C06AFE
:102B600000F0F001A069814201D0012074E71F4804
:102B7000C06A20F0F000A16908431C49C8620846F9
:102B8000C06A20F47040616908431849C862012096
:102B900019490867FFF752FA064606E0FFF74EFAB2
:102BA000801B642801D9032056E71048006800F014
:102BB00000500028F2D009E0FFE70C48C06A00F49A
:102BC00070406169884201D0012045E7207800F01B
:102BD0001000102807D10548406820F48000E16902
:102BE000084302494860002036E700000010024018
:102BF00000700040400442420000424270B504466A
:102C00000D460CB9012070BD5A48006800F007005D
:102C1000A8420ED25748006820F0070028435549C3
:102C200008600846006800F00700A84201D00120B3
:102C3000E9E7207800F0020002281DD1207800F09A
:102C40000400042805D14C48406840F4E0604A493B
:102C50004860207800F00800082805D14648406800
:102C600040F46050444948604348406820F0F00018
:102C7000A168084340494860207800F0010078B31B
:102C80006068012806D13C48006800F4003090B923
:102C90000120B8E76068022806D13748006800F0D4
:102CA000007040B90120AEE73348006800F0020030
:102CB00008B90120A7E73048406820F003006168A8
:102CC00008432D494860FFF7B9F9064609E0FFF7C8
:102CD000B5F9801B41F28831884202D9032092E77E
:102CE00007E02548406800F00C006168B0EB810FF8
:102CF000EDD12048006800F00700A8420ED91D4819
:102D0000006820F0070028431A4908600846006858
:102D100000F00700A84201D0012074E7207800F0FD
:102D20000400042807D11448406820F4E060E168FA
:102D3000084311494860207800F00800082808D1AD
:102D40000D48406820F46050216940EAC1000A49FA
:102D5000486000F061F808494968C1F30311074A67
:102D6000515CC8400649086006480068FFF712FD3C
:102D7000002048E7002002400010024010960008A2
:102D800028010020200100200F2202600D4A526815
:102D900002F0030242600B4A526802F0F0028260C5
:102DA000084A526802F4E062C260064A526802F4BD
:102DB0006052D2080261044A126802F007020A60F7
:102DC00070470000001002400020024001480068E7
:102DD000704700002801002000B5FFF7F7FF044905
:102DE0004968C1F30221034A515CC84000BD00009C
:102DF000001002402096000800B5FFF7E7FF0449E5
:102E00004968C1F3C221034A515CC84000BD0000BB
:102E100000100240209600082DE9F04F8BB03CA234
:102E2000D2E901311068D268CDE908310A920790E1
:102E30003BA3D3E90020D3E9021304AC0BC40392F3
:102E40004FF00009CB46CA460024002002900190B2
:102E500000903748D0F8049009F00C0000284FD0BB
:102E6000042802D008284AD102E0324802904AE001
:102E700007A8C9F38341445C09F48030C0B32C48EF
:102E8000C06A00F00F0003A911F800B02848C06A1A
:102E900000F4803008B32648C06AC0F30310401C19
:102EA00001902348C06AC0F30320801C0090019861
:102EB000A0FB0B5006461F490098A1FB00210023F0
:102EC000A2FB047C01FB04C102FB03112A4633462A
:102ED0003846FDF7BDF9824603E016486043B0FB73
:102EE000FBFA9DF82900A04206D14FEA5A0A03E0F6
:102EF000FFE7114804FB00FACDF808A003E000BF8B
:102F00000C48029000BF00BF02980BB0BDE8F08FE4
:102F1000000004050607080900000000000D00007D
:102F20000102030405060708090A0B0C0D0E0F1019
:102F30000010024000127A0000093D00F8B5044676
:102F40000CB90120F8BD207800F00100002878D0ED
:102F5000FD48406800F00C0004280CD0FA48406896
:102F600000F00C00082811D1F748406800F48030C8
:102F7000B0F5803F0AD1F448006800F40030002822
:102F80005FD0A06800285CD10120DBE700BFA0680B
:102F9000B0F5803F06D1EC48006840F48030EA4943
:102FA000086028E0A06858B9E748006820F480303D
:102FB000E54908600846006820F4802008601AE0AF
:102FC000A068B0F5A02F0BD1DF48006840F4802046
:102FD000DD4908600846006840F4803008600AE077
:102FE000D948006820F48030D74908600846006856
:102FF00020F48020086000BFA06888B1FFF71EF8A9
:10300000054606E0FFF71AF8401B642801D90320A3
:1030100098E7CD48006800F400300028F2D010E0B6
:10302000FFF70CF8054606E0FFF708F8401B642898
:1030300001D9032086E7C448006800F40030002866
:10304000F2D1207800F00200022857D1BE48406833
:1030500000F00C0050B1BC48406800F00C0008289B
:1030600018D1B948406800F4803098B9B648006873
:1030700000F0020020B16069012801D0012061E761
:10308000B148006820F0F800A16940EAC100AE49EB
:10309000086033E06069E8B10120AC490860FEF7E0
:1030A000CDFF054606E0FEF7C9FF401B022801D907
:1030B000032047E7A448006800F002000028F2D08F
:1030C000A148006820F0F800A16940EAC1009E49CB
:1030D000086013E000209D490860FEF7AFFF054639
:1030E00006E0FEF7ABFF401B022801D9032029E7C9
:1030F0009548006800F002000028F2D1207800F026
:10310000080008282DD1E069B8B101209049086075
:10311000FEF794FF054606E0FEF790FF401B0228ED
:1031200001D903200EE78848406A00F00200002819
:10313000F2D0012001F062FB13E000208449086016
:10314000FEF77CFF054606E0FEF778FF401B0228ED
:1031500001D90320F6E67C48406A00F0020000280E
:10316000F2D1207800F00400042873D100277648BB
:10317000C06900F0805070B900BF7348C06940F06A
:1031800080507149C8610846C06900F080500090C5
:1031900000BF00BF01276F48006800F48070B0B91D
:1031A0006C48006840F480706A490860FEF746FF8A
:1031B000054606E0FEF742FF401B642801D90320C4
:1031C000C0E66448006800F480700028F2D000BFB8
:1031D0002069012806D15C48006A40F001005A4984
:1031E000086227E0206958B95748006A20F00100BA
:1031F000554908620846006A20F00400086219E098
:10320000206905280BD15048006A40F004004E495F
:1032100008620846006A40F0010008620AE04A4875
:10322000006A20F00100484908620846006A20F060
:103230000400086200BF2069A0B1FEF7FFFE05464A
:1032400009E0FEF7FBFE401B41F28831884202D9BB
:10325000032077E622E03C48006A00F002000028E4
:10326000EFD012E0FEF7EAFE054608E0FEF7E6FEC4
:10327000401B41F28831884201D9032062E632487E
:10328000006A00F002000028F0D1012F05D12E487D
:10329000C06920F080502C49C86100BFE06AA0B32B
:1032A0002948406800F48030B0F5803F0ED12648B0
:1032B000406800F00C00082808D12348C06A00F4D8
:1032C0008030B0F5803F01D101203BE6E06A022862
:1032D00050D11D48006800F0805040B11A48C06AC3
:1032E00000F0F001606B814201D001202AE600204D
:1032F00016498866FEF7A2FE054607E0FEF79EFE29
:10330000401B642802D903201CE64DE00E480068EB
:1033100000F000600028F1D10B48C06A20F0F000F6
:10332000616B08430849C8620846C06A20F47060AF
:10333000216B08430449C862012004498866FEF7EE
:103340007DFE05460FE000000010024000004242F2
:103350008004424200700040FEF770FE401B64286B
:1033600001D90320EEE54E48006800F00060002817
:10337000F2D019E04A48C06A20F480304849C86257
:10338000002048498866FEF759FE054606E0FEF72C
:1033900055FE401B642801D90320D3E5404800684E
:1033A00000F000600028F2D1206AE0B33C48406899
:1033B00000F00C0008285ED0206A022846D10020C8
:1033C00038490866FEF73AFE054606E0FEF736FE87
:1033D000401B022801D90320B4E53148006800F001
:1033E00000700028F2D1606AB0F5803F0DD12C4802
:1033F000C06A616808432A49C8620846C06A20F06A
:103400000F00E16808432649C862D4E9090108436E
:103410002349496821F47411084321494860012077
:103420002049086600E038E0FEF708FE054606E0A1
:10343000FEF704FE401B022801D9032082E518484C
:10344000006800F000700028F2D026E00020154946
:103450000866FEF7F3FD054606E0FEF7EFFD401BAC
:10346000022801D903206DE50D48006800F00070C6
:103470000028F2D111E0206A012800D162E5084855
:10348000466806F48031606A814204D106F4701106
:10349000A06A814201D0012054E5002052E50000DD
:1034A000001002400000424204480068C06820F05A
:1034B000010002490968C86070470000940A0020B2
:1034C0007047704710B504460CB9012010BD94F840
:1034D0003D0028B9002084F83C00204600F025F883
:1034E000022084F83D00211D206801F039FA0120F6
:1034F00084F8460000BF84F83E0001213F200155BA
:10350000402001554120015500BF00BF012084F833
:10351000420043200155442001554520015500BF7C
:10352000012084F83D000020D0E77047014691F863
:103530003D00012801D001207047022081F83D00A4
:103540000868C06840F001000B68D860144B086838
:1035500098420FD00868B0F1804F0BD0114B08682B
:10356000984207D0104B0868984203D00F4B086868
:1035700098420CD10868806800F00702062A0CD037
:103580000868006840F001000B68186005E00868F2
:10359000006840F001000B6818600020CCE70000D4
:1035A000002C01400004004000080040000C0040D6
:1035B000704710B5044620680069C0F34000D8B1D8
:1035C0002068C068C0F34000B0B16FF0020021680D
:1035D0000861012020772068806900F0030018B19D
:1035E0002046FFF7E5FF05E0204600F0ADF8204655
:1035F00000F0ABF80020207720680069C0F380005D
:10360000D8B12068C068C0F38000B0B16FF004008A
:1036100021680861022020772068806900F44070EA
:1036200018B12046FFF7C4FF05E0204600F08CF8F3
:10363000204600F08AF80020207720680069C0F357
:10364000C000D8B12068C068C0F3C000B0B16FF04E
:10365000080021680861042020772068C06900F014
:10366000030018B12046FFF7A3FF05E0204600F055
:103670006BF8204600F069F8002020772068006988
:10368000C0F30010D8B12068C068C0F30010B0B11A
:103690006FF0100021680861082020772068C06959
:1036A00000F4407018B12046FFF782FF05E0204685
:1036B00000F04AF8204600F048F800202077206803
:1036C000006900F0010058B12068C06800F00100F6
:1036D00030B16FF0010021680861204600F036F833
:1036E00020680069C0F3C01058B12068C068C0F3FA
:1036F000C01030B16FF08000216808612046FFF7EC
:10370000DFFE20680069C0F3801058B12068C068EF
:10371000C0F3801030B16FF040002168086120468E
:1037200000F020F820680069C0F3401058B120680C
:10373000C068C0F3401030B16FF02000216808610C
:103740002046FFF7BEFE10BD7047704710B5044617
:1037500003492068884201D1FEF7FCFF10BD00003C
:10376000002C014070477047704700002DE9F84F6A
:103770000446206805682068C668206847694FF0DD
:103780000009CA4605F00F09B9F1000F0AD105F08A
:10379000200038B106F0200020B1204601F0B3F936
:1037A000BDE8F88FB9F1000F71D007F0010018B92A
:1037B00006F4907000286AD005F0010030B106F4DC
:1037C000807018B1206C40F00100206405F0040006
:1037D00030B107F0010018B1206C40F00200206405
:1037E00005F0020030B107F0010018B1206C40F084
:1037F0000400206405F0080048B106F0200010B96C
:1038000007F0010018B1206C40F008002064206C23
:1038100068B305F0200028B106F0200010B1204662
:1038200001F071F920684069C0F3801A206C00F043
:10383000080010B9BAF1000F22D0204601F02EF98D
:103840002068406900F04000B0B12068406920F075
:10385000400021684861A06B50B15648A16B486395
:10386000A06BFDF70FFF10B1A06B416B88470CE018
:103870002046FFF779FF08E02046FFF775FF04E0D8
:103880002046FFF771FF0020206489E7FFE7206BE7
:10389000012878D105F01000002874D006F010003F
:1038A000002870D000BF00200090206800680090C1
:1038B00020684068009000BF00BF2068406900F0A9
:1038C0004000C0B3A06B006840681FFA80F8B8F1F0
:1038D000000F2FD0A08D40452CDDA4F82E80A06BCA
:1038E000806920281FD02068C06820F4807021687B
:1038F000C8602068406920F00100216848612068A4
:10390000406920F0400021684861202084F83E0092
:10391000002020632068C06820F010002168C86083
:10392000A06BFDF784FEA08DE28D801A81B2204647
:10393000FFF719FF34E7FFE7A08DE18D401A1FFA6A
:1039400080F8E08DE8B1B8F1000F1AD02068C068A7
:1039500020F490702168C8602068406920F0010060
:1039600021684861202084F83E0000202063206800
:10397000C06820F010002168C86041462046FFF76B
:10398000F2FE0DE7FFE705F0800030B106F08000A1
:1039900018B1204601F0CBF902E705F0400030B144
:1039A00006F0400018B1204601F093F8F8E600BF99
:1039B000F6E60000F549000810B504460CB90120F0
:1039C00010BDA06900B100E000BF94F83D0028B927
:1039D000002084F83C00204600F028F8242084F8D9
:1039E0003D002068C06820F400502168C86020466F
:1039F00001F0FCF82068006920F49040216808611B
:103A00002068406920F02A00216848612068C06869
:103A100040F400502168C86000202064202084F811
:103A20003D0084F83E000020CAE7000010B586B0D3
:103A3000044600200290039004900590624920689B
:103A4000884250D100BF6148C06940F400205F49FE
:103A5000C8610846C06900F40020019000BF00BFA3
:103A600000BF0846806940F0100088610846806900
:103A700000F01000019000BF00BF08150290022066
:103A800003900320059002A95148FEF72FF94FF447
:103A90000060029000200390049002A94C48FEF7B9
:103AA00025F94C484C4908601020486000214A48DC
:103AB00081608021C1600021016141618161C1613A
:103AC000FEF780F808B1FCF7B3FF00BF424860631F
:103AD000446200BF002205213420FEF713FF34208A
:103AE000FEF700FF6EE03D492068884237D100BFF5
:103AF0003648806940F480403449886108468069CE
:103B000000F48040019000BF00BF00BF08468069FC
:103B100040F0040088610846806900F004000190CC
:103B200000BF00BF481502900220039003200590BB
:103B300002A92B48FEF7DAF84FF4806002900020CB
:103B40000390049002A92648FEF7D0F80022052130
:103B50002520FEF7D7FE2520FEF7C4FE32E02149DE
:103B6000206888422ED100BF1848C06940F48020E8
:103B70001649C8610846C06900F48020019000BF62
:103B800000BF00BF0846806940F008008861084611
:103B9000806900F00800019000BF00BF0815029086
:103BA000022003900320059002A90F48FEF79EF81B
:103BB0004FF40060029000200390049002A90A488C
:103BC000FEF794F806B010BD004C00400010024013
:103BD0000010014058040240500A00200038014003
:103BE0000008014000480040000C01402DE9F84F5A
:103BF00004460E46174699464FF0000A94F83E00D8
:103C000020285FD106B117B90120BDE8F88F00BFA9
:103C100094F83C00012801D10220F6E7012084F845
:103C20003C0000BF00202064222084F83E000020D9
:103C30002063FEF703FA8246A785E785A068B0F502
:103C4000805F04D1206910B90025B04602E03546F6
:103C50004FF0000800BF002084F83C0000BF29E0BE
:103C60005346002220212046CDF8009001F08FF825
:103C700008B10320C9E745B920684068C0F30800CF
:103C8000A8F8000008F1020811E0A068B0F5805F14
:103C900003D0A06828B9206918B920684068287046
:103CA00004E02068406800F07F0028706D1CE08D03
:103CB000401EE085E08D0028D2D1202084F83E000F
:103CC0000020A2E70220A0E770B504460D46164684
:103CD00094F83E00202816D105B10EB9012070BD20
:103CE00000BF94F83C00012801D10220F7E7012031
:103CF00084F83C0000BF002020633246294620465D
:103D000000F0F2FFEBE70220E9E7000010B50446FF
:103D1000012206490648FFF7D7FF05480068C0683A
:103D200040F0200002490968C86010BD0809002061
:103D3000840900202DE9F84F04460E46174699469F
:103D40004FF0000A94F83D0020285AD106B117B967
:103D50000120BDE8F88F00BF94F83C00012801D194
:103D60000220F6E7012084F83C0000BF0020206418
:103D7000212084F83D00FEF761F98246A784E7849C
:103D8000A068B0F5805F04D1206910B90025B04665
:103D900002E035464FF0000800BF002084F83C00E8
:103DA00000BF1BE05346002280212046CDF8009042
:103DB00000F0EDFF08B10320CBE745B9B8F80000EB
:103DC000C0F308002168486008F1020803E0287881
:103DD000216848606D1CE08C401EE084E08C002867
:103DE000E0D15346002240212046CDF8009000F05B
:103DF000CEFF08B10320ACE7202084F83D0000206E
:103E0000A7E70220A5E70000F7B50446154694F899
:103E10003D0020283DD1019800B10DB90120FEBD23
:103E200000BF94F83C00012801D10220F7E70120EF
:103E300084F83C0000BF01982062A584E58400203E
:103E40002064212084F83D001348616B8862134888
:103E5000616BC8621248616B08630020616B486344
:103E600001AE23681A1D31682B46606BFDF7F0FE2A
:103E70006FF040002168086000BF002084F83C001B
:103E800000BF2068406940F0800021684861002040
:103E9000C5E70220C3E70000594A00088F4A00081E
:103EA000094A00087047704700BFFEE701460868EE
:103EB0004069C0F38020B0B16FF480600A6850613F
:103EC00000200863202081F83D00002081F83E009A
:103ED000086C40F00400086400BF002081F83C003A
:103EE00000BF012070470020FCE700002DE9F843E7
:103EF00004460F4615469946DDE9088620680068A5
:103F000040F48060216808602068006840F4807098
:103F100021680860434600224FF0011120460096B8
:103F200000F032F960B12068006800F48070B0F5EC
:103F3000807F02D14FF4007020640320BDE8F88335
:103F400007F0FE0021680861334642463E4920469C
:103F500000F05DF908B10120F0E700BF00200090FB
:103F600020684069009020688069009000BF00BF11
:103F700032464146204600F0ECF950B1206C04284E
:103F800005D12068006840F40070216808600120B5
:103F9000D4E7B9F1010F03D1E8B22168086117E055
:103FA000C5F307202168086132464146204600F0EB
:103FB000D0F950B1206C042805D12068006840F485
:103FC0000070216808600120B8E7E8B22168086144
:103FD00032464146204600F0BCF950B1206C04281E
:103FE00005D12068006840F4007021680860012055
:103FF000A4E72068006840F48070216808604346A8
:1040000000224FF001112046009600F0BDF858B193
:104010002068006800F48070B0F5807F02D14FF412
:1040200000702064032089E7F8B240F001002168A5
:104030000861334642460449204600F0E8F808B1DA
:1040400001207BE7002079E7020001002DE9F84319
:104050000446884615469946DDE9086720680068E9
:1040600040F4807021680860334600224FF001114F
:104070002046009700F088F860B12068006800F4DE
:104080008070B0F5807F02D14FF40070206403206F
:10409000BDE8F88308F0FE00216808613B4632461F
:1040A0002149204600F0B3F808B10120F0E700BF35
:1040B000002000902068406900902068806900908E
:1040C00000BF00BF3A463146204600F042F950B1E9
:1040D000206C042805D12068006840F40070216835
:1040E00008600120D4E7B9F1010F03D1E8B22168DB
:1040F000086117E0C5F30720216808613A46314698
:10410000204600F026F950B1206C042805D1206823
:10411000006840F40070216808600120B8E7E8B248
:10412000216808610020B3E70200010070B5044671
:104130000D46164620E02046FFF7B8FE08B10120E4
:1041400070BD681CC0B1FDF779FF801BA84200D884
:1041500095B900202063202084F83D00002084F8D9
:104160003E00206C40F02000206400BF002084F856
:104170003C0000BF0120E3E720684069C0F38000F5
:104180000028D8D00020DBE72DE9F04104460D4699
:1041900017461E46DDF818801CE0701CD0B1FDF7F4
:1041A0004DFFA0EB0800B04200D89EB9002020636C
:1041B000202084F83D00002084F83E00206C40F070
:1041C0002000206400BF002084F83C0000BF0120D4
:1041D000BDE8F081C5F3074001280AD12068406995
:1041E000A9B20840A9B2884201D101200BE0002009
:1041F00009E020688069A9B20840A9B2884201D1CB
:10420000012000E00020B842C7D00020E0E72DE9FF
:10421000F04104460D4616461F463DE020684069C1
:10422000C0F38020E8B12068006840F40070216885
:1042300008606FF4806021684861002020632020BE
:1042400084F83D00002084F83E00206C40F004001B
:10425000206400BF002084F83C0000BF0120BDE8BE
:10426000F081701CC0B1FDF7E9FEC01BB04200D860
:1042700096B900202063202084F83D00002084F8B7
:104280003E00206C40F02000206400BF002084F835
:104290003C0000BF0120E2E7C5F3074001280AD136
:1042A00020684069A9B20840A9B2884201D1012022
:1042B0000BE0002009E020688069A9B20840A9B29B
:1042C000884201D1012000E000200028A6D0002073
:1042D000C5E770B504460D46164632E020684069D1
:1042E000C0F30010A0B16FF01000216848610020F9
:1042F0002063202084F83D00002084F83E00206CDC
:10430000206400BF002084F83C0000BF012070BD85
:10431000FDF794FE801BA84200D895B900202063C9
:10432000202084F83D00002084F83E00206C40F0FE
:104330002000206400BF002084F83C0000BF012062
:10434000E5E720684069C0F380100028C6D000204F
:10435000DDE770B504460D46164620E02046FFF71F
:10436000A5FD08B1012070BD681CC0B1FDF766FE57
:10437000801BA84200D895B900202063202084F833
:104380003D00002084F83E00206C40F020002064B6
:1043900000BF002084F83C0000BF0120E3E7206854
:1043A0004069C0F3C0100028D8D00020DBE700002F
:1043B0000EB500200090019002901248124908604A
:1043C000002111488160017301754FF46021C161C2
:1043D00000200D49486001210B480161FCF7EAFB10
:1043E00008B1FCF725FB0A20009001200190002075
:1043F000029069460448FCF72DFB08B1FCF718FB56
:104400000EBD0000002401401804002010B50F4824
:104410000F4908601220486000210D488160C1608A
:104420004FF4802101618900416100210176012161
:104430004176002181760121C17600210177417703
:10444000FCF71FFF08B1FCF7F3FA10BD0064004051
:104450004C08002010B50F480F4908601220486032
:1044600000210D488160C1604FF480210161890005
:1044700041610021017601214176002181760121EF
:10448000C176002101774177FCF7FBFE08B1FCF70C
:10449000CFFA10BD006800407408002008B500BFC6
:1044A0000A48406940F002000849486108464069EE
:1044B00000F00200009000BF00BF002205213C2058
:1044C000FEF720FA3C20FEF70DFA08BD001002406E
:1044D00000B5A1B01E4B0FCBCDE91F23CDE91D01C7
:1044E00000211DA803F0A4F91A4908601C221849EC
:1044F000103116A8FBF73BFF002116A803F0ACF91A
:10450000154908601C2212492C310FA8FBF72FFF18
:1045100000210FA803F0A0F9104908601C220C49E3
:10452000483108A8FBF723FF002108A803F094F9FD
:104530000B4908601C220649643101A8FBF717FFEC
:10454000002101A803F088F90649086021B000BDE8
:10455000909500083C0000202C0000203000002036
:10456000340000203800002000B585B00020019004
:1045700002900390049000BF4E48806940F0100004
:104580004C4988610846806900F01000009000BF27
:1045900000BF00BF0846806940F0200088610846DF
:1045A000806900F02000009000BF00BF00BF0846F7
:1045B000806940F0040088610846806900F00400CA
:1045C000009000BF00BF00BF0846806940F00800AF
:1045D00088610846806900F00800009000BF00BFB5
:1045E000002248F218113448FDF722FD0022202154
:1045F0003248FDF71DFD002244F202013048FDF76C
:1046000017FD0122D1022C48FDF712FD4FF2DE30DA
:1046100001900320029001A92848FDF767FB41F2B1
:10462000E20001900320029001A92348FDF75EFB00
:104630000420019000200290039001A91E48FDF77C
:1046400055FB48F6181001900120029000200390BD
:104650000220049001A91848FDF748FB2020019092
:1046600001200290002003900220049001A9134829
:10467000FDF73CFB48F23D0001900320029001A9A8
:104680000F48FDF733FB44F2020001900120029035
:10469000002003900220049001A90948FDF726FBA1
:1046A000042001900320029001A90648FDF71EFB9B
:1046B00005B000BD0010024000080140001001409C
:1046C000000C01400014014010B50B480B49086074
:1046D0000B484860002109488160C1604FF4804167
:1046E0000161002141618161C1610162FDF7ACFCA2
:1046F00008B1FCF79DF910BD00540040B40800203B
:10470000A086010010B50B480B4908604FF4E1305A
:104710004860002108488160C16001610C2141614D
:1047200000218161C161FFF747F908B1FCF780F909
:1047300010BD0000004C00408409002010B50B485B
:104740000B4908604FF4165048600021084881600A
:10475000C16001610C21416100218161C161FFF7EC
:104760002BF908B1FCF764F910BD000000380140D6
:10477000C809002010B50B480B4908604FF4E13020
:104780004860002108488160C16001610C214161DD
:1047900000218161C161FFF70FF908B1FCF748F909
:1047A00010BD0000004800400C0A002000BFFEE7DA
:1047B00070B502460B464FF6FF71002014E0145C02
:1047C00000250EE084EA010606F0010626B14AF251
:1047D000010686EA610600E04E10314664106E1C48
:1047E000F5B2082DEEDB401C9842E8DB080240EAF7
:1047F000212080B270BD00BFFEE7000008B5084967
:104800000968C9084FF47A72B1FBF2F14143009193
:1048100000BF00BF00994A1E00920029F9D108BDCF
:104820002801002000BF4FF47A7002F0E6FFFAE79B
:104830000024DD200E490870EE20487500BF04E01A
:104840000B48401C0455601CC4B2142CF8DB01F06A
:1048500073FC00BF4FF47A7002F0CFFF03F02CF826
:104860000448028804490548FFF7CEFAF2E7000041
:10487000A40100206C0000206404002084090020B2
:1048800010B500BF502080F31188BFF34F8FBFF3E6
:104890006F8F00BF04F0E0FC18B14FF08050044966
:1048A000086000BF002080F3118800BF10BD000029
:1048B00004ED00E000B59BB038210DA8FBF77EFDAC
:1048C000142108A8FBF77AFD20216846FBF776FD46
:1048D00001200D9000040F900320109001201290F1
:1048E00000040E9002201590C103169181041791C7
:1048F00018908102199110211A910DA8FEF71EFB44
:1049000008B1FCF795F80F200890022009900020CC
:104910000A904FF480600B9000200C90012108A8B1
:10492000FEF76CF908B1FCF783F802200090400311
:1049300002906846FEF75AF808B1FCF779F80120B2
:10494000014908671BB000BD0000424270470000EB
:1049500010B50248FEF72DFE10BD0000940A00209D
:1049600010B502681B4B98420BD0B0F1804F08D0B5
:10497000194B984205D0194B984202D0184B9842D7
:1049800003D122F070024B681A43124B98420BD0AD
:10499000B0F1804F08D0104B984205D00F4B984291
:1049A00002D00F4B984203D122F44072CB681A43D5
:1049B00022F080034C6943EA040202608B68C36200
:1049C0000B688362034B984201D10B690363012397
:1049D000436110BD002C014000040040000800406D
:1049E000000C004010B50248FEF7C0FE10BD0000EC
:1049F0008409002070B505466C6A0020E085E084DB
:104A00002046FEF7B1FE70BD70B506460025746AFB
:104A100020684069C0F3C01594F83D00212805D1F5
:104A200025B10020E084204600F063F8206840694A
:104A3000C0F3801594F83E00222805D125B100204E
:104A4000E085204600F02AF8206C40F01000206439
:104A50002046FEF789FE70BD70B505466C6A286871
:104A6000006800F0200070B90020E08420684069F0
:104A700020F08000216848612068C06840F0400054
:104A80002168C86002E02046FFF70CFA70BD70B5DF
:104A90000446656A2846FFF706FA70BD0168C968D2
:104AA00021F490710268D1600168496921F0010127
:104AB00002685161016B012905D10168C96821F0C3
:104AC00010010268D160202180F83E1000210163AE
:104AD000704710B504462068C06820F04000216887
:104AE000C860202084F83D002046FFF7DBF9002055
:104AF00010BD0168C96821F0C0010268D1602021A1
:104B000080F83D107047F8B5044694F83E0022281E
:104B100069D1A068B0F5805F0CD1206950B900253B
:104B2000A66A20684068C0F308003080A06A801C34
:104B3000A06215E0A56A0026A068B0F5805F03D0EA
:104B4000A06828B9206918B920684068287004E076
:104B50002068406800F07F002870A06A401CA062B6
:104B6000E08D401E80B2E085A8BB2068C06820F0C0
:104B700020002168C8602068C06820F48070216827
:104B8000C8602068406920F0010021684861202049
:104B900084F83E00206B01281ED10020206320688D
:104BA000C06820F010002168C8602068006800F02C
:104BB000100010280AD100BF002000902068006873
:104BC000009020684068009000BF00BFA18D204683
:104BD000FEF7C9FD03E004E02046FFF797F8002048
:104BE000F8BD0020FCE70220FAE7000070B504469B
:104BF0002168096921F44051E2681143226811617A
:104C00002269A1681143626941EA02052168C96805
:104C100041F20C62914329432268D16021684969BD
:104C200021F44071A2691143226851612D4A216823
:104C3000914202D1FEF7E0F801E0FEF7CDF800EB7B
:104C4000C00101EB001162689200B1FBF2F100EBD0
:104C5000C00202EB001263689B00B2FBF3F2642314
:104C6000B2FBF3F202EBC20303EB0212A1EB8201EF
:104C7000322202EB01116422B1FBF2F101F0F001EA
:104C800000EBC00202EB001263689B00B2FBF3F280
:104C90006423B2FBF3F201EB021200EBC00101EB63
:104CA000001163689B00B1FBF3F100EBC00303EB61
:104CB00000136668B600B3FBF6F36426B3FBF6F3A5
:104CC00003EBC30606EB0313A1EB8301322303EBD3
:104CD00001116423B1FBF3F101F00F0111442268CB
:104CE000916070BD0038014010B5034699629A8505
:104CF000DA8500201864222083F83E0000BF0020DF
:104D000083F83C0000BF1868C06840F480701C68DD
:104D1000E0601868406940F001001C686061186834
:104D2000C06840F020001C68E060002010BD014613
:104D300091F83D00212828D18868B0F5805F0BD11B
:104D4000086948B90A6A1088C0F308000B685860FF
:104D5000086A801C086205E00B6A581C0862187813
:104D60000B685860C88C401E80B2C88458B9086867
:104D7000C06820F080000B68D8600868C06840F008
:104D800040000B68D860002070470220FCE72DE946
:104D9000F04104460D4617469846069E21E0701CD9
:104DA000F8B12EB1FDF74AF9A0EB0800B04218D9CE
:104DB0002068C06820F4D0702168C860206840690D
:104DC00020F0010021684861202084F83D0084F82B
:104DD0003E0000BF002084F83C0000BF0320BDE877
:104DE000F081206800682840A84201D1012000E03D
:104DF0000020B842D3D00020F1E7000010B50248EF
:104E0000FEF7B4FC10BD0000C809002000BFFEE79B
:104E10000FB4054B10B503A9044A029800F030F90D
:104E200010BC5DF814FB0000355D000898010020FF
:104E30000FB41CB50246002007AC00290BD0491E58
:104E4000CDE90021054B6A462146069800F018F985
:104E5000009A002111701CBC5DF814FBAF570008CC
:104E60000FB4084B10B504A902AA039800F008F982
:104E7000044602A9002000F0A5FC204610BC5DF805
:104E800014FB0000C557000830B47446641E257832
:104E9000641CAB4200D21D46635D5B00E31830BC6E
:104EA0001847000002480068C0F302207047000065
:104EB0000CED00E010B5002804DB0A07130E054ACC
:104EC000135406E00A07140E034A00F00F031B1FD9
:104ED000D45410BD00E400E018ED00E002E008C882
:104EE000121F08C1002AFAD170477047002001E064
:104EF00001C1121F002AFBD1704700002DE9FF5F9E
:104F000082B00021DDE90430020DDDF840B003433A
:104F100018D044F61050A2F2FF32424315141198F3
:104F200001281FD0A5EB0B00401C5FEA000A4FF0E0
:104F300000064E4FDFF83891B046504615D5CAF1FD
:104F4000000413E0119801244AA3012801D16FEA5B
:104F50000B010298119AC0E90031C0E9024206B083
:104F6000BDE8F09FCBF10000DFE704460021404A96
:104F7000491842EB0450CDE9001012E0E00707D0D9
:104F800032463B4640464946FBF75EFB8046894633
:104F900032463B4610461946FBF756FB06460F467F
:104FA0006410002CEAD1DDE90401DDE90023BAF147
:104FB000000F06DAFBF748FB42464B46FBF744FB83
:104FC00005E0FBF7B3FB42464B46FBF7AFFB04465D
:104FD0000E460022284BFBF731FC03D84FF0FF3080
:104FE000014607E00022254B20463146FBF785FAB3
:104FF000FBF70BFC102409E0002C0ADB0A2200233B
:10500000FBF726F9039B30321A55641E50EA010261
:10501000F2D1641C039AC4F111031444119A012AB9
:1050200003D0012208430DD10AE0084304D0002038
:105030004FF0110B119072E7A3EB0B056D1E0DE005
:105040005B4504DD4FF0000205F1010504E003DAE1
:105050004FF00002A5F10105002AECD00298119949
:10506000C0E90231C0E9004579E7000000001440C2
:105070000000F03F300000000000F0430000E03F7F
:105080002DE9FF4F95B09B468946064600250FE265
:10509000252877D100242746F84A0121059400E00D
:1050A000044316F8013F203B01FA03F01042F7D108
:1050B00030782A2811D06FF02F033078A0F1300219
:1050C000092A16D8059A44F0020402EB820203EB87
:1050D00042021044761C0590EFE759F8042B059224
:1050E000002A03DA504244F40054059044F00204CC
:1050F000761C30782E2816D116F8010F44F00404DF
:105100002A280DD06FF02F023078A0F13003092B40
:1051100009D807EB870302EB4303C718761CF3E7B4
:1051200059F8047B761C30786C280FD006DC4C28AC
:1051300017D068280DD06A2814D104E0742810D044
:105140007A280FD10DE044F400140AE044F48014EE
:1051500001E044F440147278824202D104F58014D4
:10516000761C761C307866280BD013DC582877D054
:1051700009DC002875D04528F6D04628F4D0472809
:105180001AD19DE118E0632835D0642879D06528CC
:1051900012D195E1702873D008DC6728F1D0692816
:1051A0006FD06E280DD06F2806D1B5E073282CD0B3
:1051B000752875D0782874D05A46179990476D1C79
:1051C00075E1C4F30250022809D003280DD0D9F8A4
:1051D000001004280DD00D6009F1040967E1D9F829
:1051E0000010EA17C1E90052F6E7D9F800100D8067
:1051F000F2E70D70F0E719F8041B8DF8001000209D
:105200008DF80100EA46012003E059F804AB4FF0A5
:10521000FF3061074FF0000102D40DE008F10101F9
:105220008846B9420FDA8045F8DB1AF808100029E1
:10523000F4D108E008F1010188468142FADB1AF84E
:1052400008100029F6D105985B46A0EB0807214617
:105250003846179A00F094FA284400EB080507E056
:105260004DE029E10DE01AF8010B5A4617999047D5
:10527000B8F10108F7D25B4621463846179A13E188
:1052800042E00A220092C4F302524FF0000A022ABE
:1052900008D059F804CB032A4FEAEC710AD00DE08C
:1052A00029E02AE009F1070121F00702F2E802C132
:1052B000914609E00FFA8CFC4FEAEC71042A03D105
:1052C0004FFA8CFC4FEAEC71002907DA0A460021FC
:1052D000DCF1000C61EB02012D2202E0220504D575
:1052E0002B228DF80420012203E0E20701D02022C6
:1052F000F7E7904659E00A2102E010220DE0102164
:105300004FF0000A00910BE010224FF0000A44F029
:1053100004040827009203E008224FF0000A0092DC
:10532000C4F30252022A05D059F804CB0021032A03
:1053300008D009E009F1070121F00702F2E802C1F3
:10534000914605E01FFA8CFC042A01D10CF0FF0CF9
:105350004FF00008220728D5702806D0009B83F064
:10536000100353EA0A0305D00EE040228DF8042012
:10537000012208E05CEA010206D030228DF8042008
:105380008DF8050002229046009B83F0080353EA43
:105390000A030AD15CEA010201D1620705D5302275
:1053A0008DF804204FF001087F1E582804D034A047
:1053B00003900EA802900DE036A0F9E75346604630
:1053C000009AFAF745FF84460398825C0298401ED3
:1053D000029002705CEA0100F0D1029806A9081A56
:1053E00000F1200A600702D524F4803400E0012790
:1053F000574502DDA7EB0A0000E0002000EB0A01A0
:10540000009005984144401A0590E00306D45B469D
:105410002146179A059800F0B3F90544002706E0E5
:1054200001A85A46C05D179990476D1C7F1C4745DF
:10543000F6DBE0030CD55B462146179A059800F091
:105440009FF9054404E030205A46179990476D1C97
:105450000099481E00900029F5DC08E002980299A6
:105460005A460078491C0291179990476D1CBAF171
:105470000001AAF1010AF1DC65E100000928010040
:1054800030313233343536373839616263646566BA
:10549000000000003031323334353637383941427C
:1054A000434445460000000000F058F90544761CCE
:1054B000307800287FF4ECAD19B02846BDE8F08FB5
:1054C000620700D4062709F1070222F0070CFCE866
:1054D0000223E14603F000485FEA080C02D00FF215
:1054E000702C0DE05FEA045C02D50FF2682C07E037
:1054F0005FEAC47C02D00FF2602C01E0AFF2700CC6
:105500004FF0FF3823F00043CDF850C065280CD091
:1055100006DC452809D046281DD047283DD13DE06E
:10552000662818D067287ED138E00021112F01DBD2
:10553000112000E0781CCDE9000106A90EA8FFF7B4
:10554000DDFCDDE90F010E9A03910021009207F1C5
:10555000010A04914DE04FF000400097CDE90110A1
:1055600006A90EA8FFF7CAFCDDE90F0203920E9B05
:1055700011990022DDF80CA00093049211B9791C56
:1055800000EB010AB7EB0A0004D4C0F1FF3007F1C9
:10559000010A0490AAEB0700019044E0012F00DA11
:1055A00001270021112F01DD112000E03846CDE94F
:1055B000000106A90EA8FFF7A1FCDDE90F010E9A74
:1055C0000391002104910092BA4621070CD403995B
:1055D000514500DA8A46BAF1010F05DD009AAAF1B9
:1055E0000101515C302908D0B84202DA10F1040FF1
:1055F00006DA0121CDE9011015E0AAF10101E9E780
:10560000002805DC049901440491AAEB000102E0A2
:10561000411C514500DD8A460499401A401C019006
:105620004FF000400290200704D40198504501DB60
:10563000CDF8048000208DF84F0002980DF14F073F
:10564000B0F1004F25D02B200E9002984FF00208A9
:1056500000280CDA404202902D200E9007E00A212B
:105660000298FAF7DFFD3031029007F8011DB8F11A
:105670000001A8F10108F2DC02980028EFD1791EA0
:105680000E980870307800F0200040F0450007F8D0
:10569000020D12A8C01B00F107081498007800B191
:1056A000012000EB0A01019801EBE07105984144EB
:1056B000401A401E0590E00306D45B462146179A27
:1056C000059800F05DF805441498007818B15A4622
:1056D000179990476D1CE00324D55B462146179A25
:1056E000059800F04DF805441CE00498002807DBFD
:1056F000DDE90301884203DD0098405C179901E071
:10570000179930205A469047049805F10105401C2E
:1057100004900198401E019004D12E205A461799FA
:1057200090476D1CBAF10001AAF1010ADDDC05E029
:1057300017F8010B5A46179990476D1CB8F10001F4
:10574000A8F10108F4DC5B462146179A0598ABE600
:105750002D0000002B000000200000002DE9F0418A
:10576000044600251E461746880404D405E0394641
:105770002020B0476D1C641EF9D52846BDE8F08195
:105780002DE9F041044600251E469046C80301D588
:10579000302700E02027880404D505E0414638463C
:1057A000B0476D1C641EF9D52846BDE8F0814A68F3
:1057B000002A06D00A68531C0B6010704868401E0F
:1057C000486070470A68531C0B60107070470A6885
:1057D0000C30824204D14868824201D101207047D6
:1057E00000207047FFB59DB01D98269D1C460E46B3
:1057F00000287DD0007801210300FFF745FB0898C1
:1058000041321121090D05792A460421C9A08EE1F2
:105810002A460421C9A08AE12A460521C9A086E1B9
:105820001D9800F065FE01910090C8A2642102A8B5
:10583000FFF7FEFA014664285AD22A4602A876E10A
:105840001D9800F028FF3204D20E009202460B464B
:10585000642101A800F03EFF010049D42A4601A8B6
:1058600065E11D9800F023FF07461D9800F028FF12
:105870002B4622463946009600F0AEF921B0F0BD25
:105880001D9F7869002842D179611D9800F093FD31
:1058900002902A460121AFA0A047002837D10298E4
:1058A00000280AD01F992346002200953046491C43
:1058B00000F062F900282AD134E0002078612A46FD
:1058C0000121A5A033E101461D9800F066FD1F9A55
:1058D000234600953146521CFFF784FF002816D15D
:1058E00002980199401E814214DA2A46012100E003
:1058F00014E19AA0A047002809D11F99234601224C
:1059000000953046491C00F037F9002808D00020E7
:10591000786103E123460022009530461F99F2E7A3
:105920000198401C029901908842CCDBC5E7B00683
:1059300003D58BA00390012002E08AA003900220EF
:1059400005901D980890006A00287DD10898016292
:105950001D9800F00DFE06902A46012182A0A04766
:105960000028F2D1069800286FD01F992346002204
:1059700000953046491C00F0FFF80028E5D1F005FD
:10598000800F75D01D9800F07DFE0290C00000F0E1
:10599000F9FE0190002857D00027069800F069FB17
:1059A0000146F800019A00901150069800F0ECFDB5
:1059B0000146019A00988018416006991D9800F0F0
:1059C000E9FD7F1C06900028E7D10298874228D184
:1059D000300601D5654B00E0654B0822029901981D
:1059E000FAF777FC00274BE00198F90008184068A7
:1059F000069001461D9800F0ADFD0990002810D0DA
:105A00000698FAF7F0FC01462B46224600960698C7
:105A100000F0E2F82A4605990398A047002823D110
:105A200001E0AFF300801F9A234600953146521CD7
:105A30000998FFF7D7FE002816D10298401E87422A
:105A400017D22A46012101E065E06AE043A0A047A1
:105A5000002809D11F992346012200953046491C90
:105A600000F08AF800280AD0019800F083FE52E086
:105A700039E023460022009530461F99F0E77F1C4D
:105A800002988742B0D3019800F074FE49E006986E
:105A900000F08EFD1F9A234600953146521CFFF7F9
:105AA000A1FE002837D10498002810D02A460121F1
:105AB0002AA0A04700282ED11F9923460122009535
:105AC0003046491C00F058F8002824D109E023464C
:105AD0000022009530461F9900F04EF800281AD198
